:020000040800F2
:100000003004002001010008910A0008BB0200082A
:100010008D0A00086D010008170D0008000000009F
:10002000000000000000000000000000ED0A0008D1
:100030009102000800000000D30A0008210C00080B
:100040001B0100081B0100081B0100081B01000820
:100050001B0100081B010008950200081B01000895
:100060001B0100081B0100081B0100081B01000800
:1000700071010008750100081B0100081B01000840
:100080001B0100081B0100081B0100081B010008E0
:100090001B0100081B0100081B0100081B010008D0
:1000A0001B0100081B0100081B0100081B010008C0
:1000B0001B0100081B010008000000001B010008D4
:1000C0001B01000800000000000000001B010008E8
:1000D000000000001B0100081B01000800000000D8
:1000E0001B0100081B0100081B010008DFF80CD0F1
:1000F00000F02AF800480047E50D00083004002011
:100100000648804706480047FEE7FEE7FEE7FEE7B1
:10011000FEE7FEE7FEE7FEE7FEE7FEE7150D000857
:10012000ED000008D2B201E000F8012B491EFBD21D
:1001300070470022F6E710B513460A4604461946F2
:10014000FFF7F0FF204610BD064C074D06E0E068C3
:1001500040F0010394E8070098471034AC42F6D30E
:10016000FFF7C8FF080F0008280F000800BFFEE7D0
:100170007047000010B500BF10200E49486000BF56
:1001800040F60800010A0C4A116100BF00BF90153B
:100190000849486000BF084603214A1E074B9A5C85
:1001A000825822F001034A1E044CA25C835000BF17
:1001B00010BD00000000024000080140FF0E0008D2
:1001C0002DE9F04102212E4800F0B0F800BF2020B8
:1001D0002B49486000BF00BF8020486000BF00BFBF
:1001E0002848406840F001002649486000BF0221CD
:1001F000234800F0B7F822480221224D05F10C02F5
:10020000214B05460226771EDFF880C01CF80770D8
:10021000EF5944F2100C07EA0C0400BF102C09D16E
:100220004D1E1A4E755D0544EA604D1E755D054410
:10023000AB6008E04D1E154E755D0544AA604D1E6D
:10024000755D0544EB6000BF03210D4800F06EF8BA
:1002500000BF4FF400700A49486000BF00BF800033
:10026000486000BF00BF0748406840F002000549F1
:10027000486000BF0321024800F074F8BDE8F08137
:1002800000000240003001400C000020F10E000888
:10029000704700000120074909680140814200D1F0
:1002A00000E0002121B101200249086000BF00BF29
:1002B0007047000014040140704700BFFEE70000D3
:1002C00008B5054989690143034A91611146896965
:1002D0000140009100BF08BD0010024008B505496B
:1002E00089690143034A916111468969014000917E
:1002F00000BF08BD0010024070B5049C102C09D14D
:100300004D1E094E755D0544EA604D1E755D054440
:10031000AB6008E04D1E044E755D0544AA604D1E9D
:10032000755D0544EB6070BDD80E000810B54A1E1F
:10033000044B9A5C825822F001034A1E014CA25CD5
:10034000835010BDF10E000810B54A1E044B9A5C94
:10035000825842F001034A1E014CA25C835010BD3A
:10036000D80E000810B54A1E044B9A5C825842F021
:1003700002034A1E014CA25C835010BDF10E00081E
:100380000246481E034B185C105844F210031840F4
:1003900070470000D80E000830B54B1E054CE35CDA
:1003A000C35823F4405313434C1E024D2C5D03519C
:1003B00030BD0000F80E000830B54B1E064CE35C63
:1003C00003445B686FF30F0313434C1E024D2C5D17
:1003D0000444636030BD0000D80E000830B54B1EE9
:1003E000054CE35CC35844F21004A34313434C1E72
:1003F000014D2C5D035130BDF80E000830B54B1E89
:10040000054CE35CC35823F0800313434C1E024D9C
:100410002C5D035130BD0000F80E000830B54B1EB6
:10042000054CE35CC35823F4406313434C1E024D58
:100430002C5D035130BD0000F80E000830B54B1E96
:10044000054CE35CC35823F0200313434C1E024DBC
:100450002C5D035130BD0000F80E000830B54B1E76
:10046000054CE35CC35823F0400313434C1E024D7C
:100470002C5D035130BD0000F80E000830B54B1E56
:10048000054CE35CC35823F4407313434C1E024DE8
:100490002C5D035130BD0000F80E000802490968C8
:1004A0008143014A11607047040401400249096810
:1004B0008143014A11607047000401400249096804
:1004C0000143014A11607047040401400249096870
:1004D0000143014A116070470C0401400249096858
:1004E0000143014A11607047000401400249096854
:1004F0000143014A116070470804014070B5044689
:100500000025207900284DD02068002850D060793F
:1005100020B1012809D0022815D10DE02068FFF78D
:10052000BDFF2068FFF7DAFF0FE02068FFF7BEFF8E
:100530002068FFF7C3FF08E02068FFF7CFFF2068BF
:10054000FFF7BCFF01E0012500BF00BFA07940B369
:10055000A079012804D002280DD003281FD117E06C
:100560002068144909688143124A116000BF20685D
:10057000FFF7BCFF15E020680E49091F0968814399
:100580000C4A121F116000BF2068FFF79FFF08E0B0
:100590002068FFF7ABFF2068FFF798FF01E0012517
:1005A00000BF05E02068FFF781FF2068FFF776FFB6
:1005B000284670BD0C0401402DE9F04102460B466F
:1005C0001868C0F30F2595FAA5F0B0FA80F480E022
:1005D0000120A040284000287AD0082C04D240F204
:1005E000011000FA04F106E0A4F108004FF0011632
:1005F000864046F08061586808280ED11869D66890
:1006000026EA11260F0A97FAA7F7B7FA87F700FA32
:1006100007F73E43D66000BF00BF586802EB116683
:1006200091FAA1FCBCFA8CFC4FEA8C084FF00F0C3D
:100630000CFA08FC376827EA0C0791FAA1FCBCFA0F
:100640008CFC4FEA8C0C00FA0CFC47EA0C07376074
:1006500000BF5868012802D05868092838D1986826
:1006600002EB116691FAA1FCBCFA8CFC4FEA8C08F3
:100670004FF0030C0CFA08FC376827EA0C0791FAD4
:10068000A1FCBCFA8CFC4FEA8C0C00FA0CFC47EA8B
:100690000C07376000BFD86802EB116691FAA1FC25
:1006A000BCFA8CFC4FEA8C084FF0040C0CFA08FCE6
:1006B000376827EA0C0791FAA1FCBCFA8CFC4FEAD8
:1006C0008C0C00FA0CFC47EA0C07376000BF00BF37
:1006D000641C25FA04F000287FF47AAFBDE8F081AD
:1006E000C1F30F22426170474FF47A71B0FBF1F20F
:1006F000521E4FF0E0235A6100229A6105221A61CE
:1007000000BF704730B50246012300BF1068C0F338
:10071000801038BBD1E9000420438C682043CC68AA
:1007200020430C6920434C6920438C692043CC69E9
:1007300020430C6A204314684FF6BF75AC43204336
:100740001060506820F004004C6940EA144050608A
:10075000086AB0F5005F04D1486A84B2146100BF32
:1007600000BF0023184630BD0149086070470000F3
:100770000800002008B54FF0E0210969009100BF92
:10078000411C01B1401C06E04FF0E021096901F471
:10079000803101B1401E0028F6D108BD38B50120D6
:1007A000144949690143134A51611146496901409D
:1007B000009100BF00BF00F0C7FA054600221146B5
:1007C00000F067F9044621460C2000F0C5FA0C2021
:1007D00000F0ACFA00F0B8FA05460022114600F02D
:1007E00058F9044621460D2000F0B6FA0D2000F01D
:1007F0009DFA38BD001002402DE9F04188B000207C
:1008000006900790142101A8FFF793FC2020FFF722
:1008100057FD0420FFF754FD0820FFF751FD41F676
:100820001E60010A4F4A516100BF00214FF4702041
:100830004D4AC3B252F8232022EA1042030C93FA25
:10084000A3F3B3FA83F301FA03F31A43464BC4B29A
:1008500043F8242000BF012006908DF81C000020E2
:100860008DF81D0002208DF81E0006A8FFF746FE39
:100870003C4940F20110042201EB106390FAA0F50C
:10088000B5FA85F5AE000F25B5401C68AC4390FA6B
:10089000A0F5B5FA85F5AD0002FA05F52C431C600C
:1008A00000BF41F61E6001900120029002200390DB
:1008B0000020049001A92B48FFF77EFE06212B4B58
:1008C0001B68C3F30220002425460346C3F1070C2E
:1008D000BCF1040F02D94FF0040C01E0C3F1070C86
:1008E000674603F1040CBCF1070F02D24FF0000C75
:1008F00001E0A3F1030C66464FF0010C0CFA07FC73
:10090000ACF1010C0CEA040C0CFA06FC4FF00108E7
:1009100008FA06F8A8F1010808EA05084CEA0802F6
:1009200000BF002904DB1007030E1148435407E001
:100930001007040E0D480C3001F00F031B1FC454A8
:1009400000BF0620002809DB00F01F0201219140B2
:100950004209920002F1E022C2F8001100BF08B083
:10096000BDE8F08100080140080001400CED00E006
:1009700000E400E000B58FB0282105A8FFF7D9FBFF
:1009800014216846FFF7D5FB4FF48050FFF7A6FC13
:100990000420FFF7A3FC4AF2A00000900920019078
:1009A000032002900020039069463548FFF704FEBB
:1009B00044F2400000900420019069463048FFF75F
:1009C000FBFD002202212F48FFF708FD0022022133
:1009D0002C48FFF7E1FC002202212A48FFF72EFDF8
:1009E000002202212748FFF739FD802202212548F5
:1009F000FFF704FD002202212248FFF73FFD0022FD
:100A000002212048FFF70AFD102203211D48FFF7AD
:100A1000E5FC002203211B48FFF7BEFC0022032156
:100A20001848FFF70BFD002203211648FFF716FDBB
:100A3000802203211348FFF7E1FC00220321114823
:100A4000FFF71CFD002203210E48FFF7E7FC002002
:100A500005904FF48270069000200790089009904E
:100A60004FF400700A9018200B9000200C900D900D
:100A70000A200E9005A90448FFF744FE0FB000BD00
:100A800000080140000002400030014000BFFEE7C6
:100A90007047F0B503460C4603F00701C1F10700AB
:100AA000042801D9042001E0C1F107000646081D11
:100AB000072801D2002000E0C81E05460120B040F2
:100AC000401E2040A8400127AF407F1E17403843FA
:100AD000F0BD704700BF0448006840F04000024984
:100AE000086000BF70470000003001407047000000
:100AF00070B50024122500F013F808E0074B621CC3
:100B0000995C1A46105D00F053F8A01CC4B2AC42C8
:100B1000F4DB8021012000F04BF870BDDF0E0008EF
:100B200010B541F210010848FFF7DAFD0A20FFF77F
:100B300021FE41F21000010A034A116100BF0A20A0
:100B4000FFF718FE10BD0000000801402DE9F84332
:100B500080460C46154600BF1248006B00F00100AD
:100B60000028F9D12A4603210E48FFF725FC03216E
:100B70000C48FFF705FC06460B4800F10C010F4638
:100B80003B462246032107480096FFF7B5FB40F697
:100B900008010648FFF7A4FD03210248FFF7D4FB34
:100BA000BDE8F88300000240003001400008014029
:100BB0002DE9FC4104460D4644F080008DF8040008
:100BC0008DF8055000BF1348006B00F001000028AD
:100BD000F9D1022203210F48FFF7EEFB03210D4854
:100BE000FFF7CEFB07460C4800F10C018846434650
:100BF00001AA032107480097FFF77EFB40F6080192
:100C00000648FFF76DFD03210248FFF79DFB3046C4
:100C1000BDE8FC81000002400030014000080140B6
:100C20007047000010B502203749096821F007011C
:100C30000143354A116000BF00BF1046006800F054
:100C40000700022801D0FFF737FB00BF2F480068DC
:100C500040F480302D49086000BF00BF00BF2B4822
:100C60000068C0F340400028F8D04FF480304FF4C3
:100C7000E011264A526822F47C1200F440330B4300
:100C80001A43224B5A6000BF00BF1846006840F06C
:100C900080701946086000BF00BF00BF1B48006895
:100CA000C0F340600028F8D000201849496821F0BE
:100CB000F0010143154A516000BF10151146496803
:100CC00021F4E0610143516000BF002011464968F2
:100CD00021F460510143516000BF02201146496870
:100CE00021F003010143516000BF00BF00BF07486E
:100CF000406800F00C000828F8D10548FFF7F4FC24
:100D00000348FFF731FD10BD0020024000100240F3
:100D100000A24A04704700BFFEE70000014A0249F2
:100D200000F03DB8C10D000800000020002809DBDC
:100D300000F01F02012191404209920002F1E022DD
:100D4000C2F800117047000002480068C0F302209A
:100D5000704700000CED00E010B5002804DB0A0726
:100D6000130E054A135406E00A07140E034A00F056
:100D70000F031B1FD45410BD00E400E018ED00E089
:100D800002E008C8121F08C1002AFAD17047704754
:100D9000002001E001C1121F002AFBD170472DE99C
:100DA000F04116460F460446002503E03946B04799
:100DB000641C6D1C20780028F8D12846BDE8F0811D
:100DC000074A126802F0807242B100BF4FF06042E1
:100DD0001268002AFAD04FF0604318707047000084
:100DE000FCED00E008B50120344989690143334A2C
:100DF0009161114689690140009100BF00BF000761
:100E00001146C9690143D1611146C9690140009188
:100E100000BF00BF03200246294B19684FF6FF03AD
:100E20001940284B0B4343EA0221254B196000BFB0
:100E300000BF2548406820F0E0602349486008462C
:100E4000406840F00070486000BFFFF7EBFEFFF71E
:100E5000D3FCFFF7A3FCFFF78DFDFFF7B1F9FFF718
:100E600039FEFFF745FE002427E0601CC4B2174896
:100E7000447340210846FFF79BFE12213920FFF7FB
:100E800097FE81210120FFF793FE80210D20FFF7BF
:100E90008FFE10220D490020FFF758FE832101200C
:100EA000FFF786FE01210846FFF782FE4FF4FA7035
:100EB000FFF760FC06A0FFF731FFD6E70010024005
:100EC0000CED00E00000FA05000001400C000020DD
:100ED00068656C6C6F000000081C3044586C800121
:100EE0008006D907000804090B0B1F1D0B1EC22228
:100EF00010081C3044586C80081C3044586C800822
:100F00001C3044586C800000280F000800000020AE
:100F10000C000000800D0008340F00080C000020B9
:100F200024040000900D00080000000000000000F4
:040F30000024F400A5
:04000005080000ED02
:00000001FF
