:020000040800F2
:10000000E816002001010008010C00088504000822
:10001000FD0B0008110300083B160008000000005B
:10002000000000000000000000000000550D000866
:100030003504000800000000830C00084515000886
:100040001B0100081B0100081B0100081B01000820
:100050001B0100081B010008390400087104000896
:100060001B0100081B0100081B0100081B01000800
:1000700015030008190300081B0100081B010008F4
:100080001B0100081B0100081B0100081B010008E0
:100090001B0100081B0100081B0100081B010008D0
:1000A0001B0100081B0100081B0100081B010008C0
:1000B0001B0100081B010008000000001B010008D4
:1000C0001B01000800000000000000001B010008E8
:1000D000000000001B0100081B01000800000000D8
:1000E0001B0100081B0100081B010008DFF80CD0F1
:1000F00000F0FCF80048004761170008E8160020EF
:100100000648804706480047FEE7FEE7FEE7FEE7B1
:10011000FEE7FEE7FEE7FEE7FEE7FEE7391600082A
:10012000ED00000840EA01039B0703D009E008C97D
:10013000121F08C0042AFAD203E011F8013B00F8AC
:10014000013B521EF9D27047D2B201E000F8012BF8
:10015000491EFBD270470022F6E710B513460A4647
:1001600004461946FFF7F0FF204610BD80EA010261
:1001700010B502F00043400022D04A001FD0010E0B
:1001800001EB1261C0F35600C2F3560240F40000C6
:1001900042F40002A0FB022000047F39140400D0C6
:1001A000401C50EA124001D44000491EC2B20C0665
:1001B00004EBD010401C4008802A02D003E000204D
:1001C00010BD20F00100002900DA0020184310BD06
:1001D00030B480EA010202F0004530F0004221F024
:1001E000004013D090B1C30DD40DC2F31601C0F37B
:1001F0001600E41A41F4000140F400027D349142FB
:1002000001D3641C00E04900002C02DA30BC00205D
:1002100070474FF400000023914201D3891A034331
:1002200040084FEA4101F7D151B1914202D14FF05C
:10023000004105E002D24FF0010101E06FF0010141
:1002400003EBC450284430BC00F019B896230022B8
:10025000114600F01DB820F00040C10DC0F316009B
:1002600040F400007F2901DA00207047962903DC62
:10027000C1F19601C84070479639884070470029FF
:10028000A8BF7047401C490008BF20F0010070471C
:1002900010B4B0FA80FC00FA0CF050EA010404BF7C
:1002A00010BC704749B1CCF1200421FA04F411FAD2
:1002B0000CF118BF012121430843A3EB0C01CB1D16
:1002C0004FEA00614FEA102042BF002010BC704787
:1002D00000EBC35010440029A4BF10BC7047401C61
:1002E000490008BF20F0010010BC7047064C074DC4
:1002F00006E0E06840F0010394E8070098471034F6
:10030000AC42F6D3FFF7F6FEAC220008CC22000880
:1003100000BFFEE77047000010B500BF10200E4977
:10032000486000BF40F608010C4800F0ABFA00BF7F
:100330004FF480700849486000BF084603214A1EF8
:10034000074B9A5C825822F001034A1E044CA25CBF
:10035000835000BF10BD00000000024000080140B3
:10036000A22200082DE9F04102212E4800F0A8F851
:1003700000BF20202B49486000BF00BF802048609C
:1003800000BF00BF2848406840F00100264948608F
:1003900000BF0221234800F0A1F822480221224D8B
:1003A00005F10C02214B05460226771EDFF880C0BE
:1003B0001CF80770EF5944F2100C07EA0C0400BF58
:1003C000102C09D14D1E1A4E755D0544EA604D1E74
:1003D000755D0544AB6008E04D1E154E755D054426
:1003E000AA604D1E755D0544EB6000BF03210D48FA
:1003F00000F066F800BF4FF400700A49486000BF83
:1004000000BF8000486000BF00BF0748406840F060
:1004100002000549486000BF0321024800F05EF871
:10042000BDE8F08100000240003001404A00002099
:10043000942200087047000010B5012000F060F918
:1004400080B1012000F0C8F80749084800F01AFA06
:10045000642000F077FA0448C0F30F21034A516189
:1004600000BF00BF10BD00002000200400100140AC
:1004700010B5022000F044F910B1022000F0ACF8F1
:1004800010BD704700BFFEE708B505498969014303
:10049000034A9161114689690140009100BF08BD7E
:1004A0000010024008B5054989690143034A91617A
:1004B000114689690140009100BF08BD001002404B
:1004C00010B54A1E044B9A5C825822F001034A1E62
:1004D000014CA25C835010BD9422000810B54A1E46
:1004E000044B9A5C825842F002034A1E014CA25C03
:1004F000835010BD9422000830B54B1E054CE35CC0
:10050000C35823F4405313434C1E024D2C5D03513A
:1005100030BD00009B22000830B54B1E054CE35C4B
:10052000C35844F21004A34313434C1E014D2C5DE9
:10053000035130BD9B22000830B54B1E054CE35CD7
:10054000C35823F0800313434C1E024D2C5D03510E
:1005500030BD00009B22000830B54B1E054CE35C0B
:10056000C35823F4406313434C1E024D2C5D0351CA
:1005700030BD00009B22000830B54B1E054CE35CEB
:10058000C35823F0200313434C1E024D2C5D03512E
:1005900030BD00009B22000830B54B1E054CE35CCB
:1005A000C35823F0400313434C1E024D2C5D0351EE
:1005B00030BD00009B22000830B54B1E054CE35CAB
:1005C000C35823F4407313434C1E024D2C5D03515A
:1005D00030BD00009B220008014908607047000000
:1005E00014040140024909688143014A11607047BF
:1005F00004040140024909688143014A11607047BF
:1006000000040140024909680143014A1160704732
:1006100004040140024909680143014A116070471E
:100620000C040140024909680143014A1160704706
:1006300000040140024909680143014A1160704702
:100640000804014070B504460025207900284DD0EB
:100650002068002850D0607920B1012809D00228F4
:1006600015D10DE02068FFF7BDFF2068FFF7DAFF26
:100670000FE02068FFF7BEFF2068FFF7C3FF08E028
:100680002068FFF7CFFF2068FFF7BCFF01E00125DE
:1006900000BF00BFA07940B3A079012804D0022890
:1006A0000DD003281FD117E0206814490968814341
:1006B000124A116000BF2068FFF7BCFF15E02068F8
:1006C0000E49091F096881430C4A121F116000BFBF
:1006D0002068FFF79FFF08E02068FFF7ABFF206866
:1006E000FFF798FF01E0012500BF05E02068FFF754
:1006F00081FF2068FFF776FF284670BD0C0401409B
:100700000146044800680840884201D10120704732
:100710000020FCE71404014010B5094ACBB252F89E
:10072000232022EA11420B0C93FAA3F3B3FA83F3CA
:1007300000FA03F31A43024BCCB243F8242010BD55
:10074000080001402DE9F04102460B461868C0F34D
:100750000F2595FAA5F0B0FA80F480E00120A040C2
:10076000284000287AD0082C04D240F2011000FA68
:1007700004F106E0A4F108004FF00116864046F0AF
:100780008061586808280ED11869D66826EA1126B3
:100790000F0A97FAA7F7B7FA87F700FA07F73E4369
:1007A000D66000BF00BF586802EB116691FAA1FC49
:1007B000BCFA8CFC4FEA8C084FF00F0C0CFA08FCCA
:1007C000376827EA0C0791FAA1FCBCFA8CFC4FEAC7
:1007D0008C0C00FA0CFC47EA0C07376000BF586825
:1007E000012802D05868092838D1986802EB1166B0
:1007F00091FAA1FCBCFA8CFC4FEA8C084FF0030C78
:100800000CFA08FC376827EA0C0791FAA1FCBCFA3D
:100810008CFC4FEA8C0C00FA0CFC47EA0C073760A2
:1008200000BFD86802EB116691FAA1FCBCFA8CFCFF
:100830004FEA8C084FF0040C0CFA08FC376827EAE2
:100840000C0791FAA1FCBCFA8CFC4FEA8C0C00FA64
:100850000CFC47EA0C07376000BF00BF641C25FA98
:1008600004F000287FF47AAFBDE8F081C1F30F22D5
:1008700042617047C1F30F2242617047C1F30F22FA
:1008800002617047C1F30F220261704770B500EB3F
:10089000116391FAA1F5B5FA85F5AE000F25B540C3
:1008A0001C68AC4391FAA1F5B5FA85F5AD0002FAE2
:1008B00005F52C431C6070BD4FF47A71B0FBF1F26A
:1008C000521E4FF0E0235A6100229A6105221A61FC
:1008D00000BF704730B50246012300BF1068C0F367
:1008E000801038BBD1E9000420438C682043CC68D9
:1008F00020430C6920434C6920438C692043CC6918
:1009000020430C6A204314684FF6BF75AC43204364
:100910001060506820F004004C6940EA14405060B8
:10092000086AB0F5005F04D1486A84B2146100BF60
:1009300000BF0023184630BD014908607047000021
:100940004C00002008B54FF0E0210969009100BF7C
:10095000411C01B1401C06E04FF0E021096901F49F
:10096000803101B1401E0028F6D108BD38B5012004
:10097000144949690143134A5161114649690140CB
:10098000009100BF00BF00F085FE05460022114621
:1009900000F057F9044621460C2000F097FE0C2089
:1009A00000F063FE00F076FE05460022114600F0DE
:1009B00048F9044621460D2000F088FE0D2000F085
:1009C00054FE38BD0010024030B587B000200590BD
:1009D000069014216846FFF7BEFB1020FFF754FD78
:1009E0002020FFF751FD0420FFF74EFD0820FFF700
:1009F0004BFD39493948FFF73DFF41F61C41384866
:100A0000FFF738FF34480090012001900220029047
:100A10000020039069463148FFF794FE41F61C40E0
:100A2000009001200190022002900020039069466E
:100A30002B48FFF787FE4FF470210020FFF76CFE74
:100A40004FF470010020FFF767FE012005908DF83C
:100A5000180000208DF8190002208DF81A0005A852
:100A6000FFF7F0FD0220059001208DF8180000200E
:100A70008DF8190001208DF81A0005A8FFF7E2FD96
:100A8000042240F201111648FFF700FF042240F251
:100A900002211348FFF7FAFE00F0F4FD054600229C
:100AA000114600F0AEF804462146062000F0FAFD9B
:100AB000062000F0CDFD00F0E5FD054600221146C0
:100AC00000F09FF804462146072000F0EBFD0720C8
:100AD00000F0BEFD07B030BD200020040010014032
:100AE0000008014000B58FB0282105A8FFF733FBAF
:100AF00014216846FFF72FFB4FF48050FFF7D2FC1C
:100B00000420FFF7CFFC4AF2A000009009200190DA
:100B1000032002900020039069463548FFF712FE3B
:100B200044F2400000900420019069463048FFF7ED
:100B300009FE002202212F48FFF7EEFC00220221CD
:100B40002C48FFF7D9FC002202212A48FFF714FDA8
:100B5000002202212748FFF71FFD8022022125489D
:100B6000FFF7EAFC002202212248FFF725FD0022C0
:100B700002212048FFF7F0FC102203211D48FFF757
:100B8000CBFC002203211B48FFF7B6FC0022032107
:100B90001848FFF7F1FC002203211648FFF7FCFC80
:100BA000802203211348FFF7C7FC002203211148CC
:100BB000FFF702FD002203210E48FFF7CDFC0020C5
:100BC00005904FF4827006900020079008900990DD
:100BD0004FF400700A9018200B9000200C900D909C
:100BE0000A200E9005A90448FFF774FE0FB000BD5F
:100BF00000080140000002400030014000BFFEE755
:100C00007047F0B503460C4603F00701C1F1070039
:100C1000042801D9042001E0C1F107000646081D9F
:100C2000072801D2002000E0C81E05460120B04080
:100C3000401E2040A8400127AF407F1E1740384388
:100C4000F0BDF0B503460C4603F00701C1F1070003
:100C5000042801D9042001E0C1F107000646081D5F
:100C6000072801D2002000E0C81E05460120B04040
:100C7000401E2040A8400127AF407F1E1740384348
:100C8000F0BD704700BF0448006840F040000249D2
:100C9000086000BF704700000030014070B5044696
:100CA0000025002084F88700254800680460244857
:100CB0000068001D224908600846016821488142F9
:100CC00003D1A0F580701E49086040F608011E4857
:100CD000FFF7CCFD002524E000BF1C48806800F031
:100CE00002000028F9D0601C405D1849C86000BFB0
:100CF0001648806800F080000028F9D100BF134832
:100D0000806800F001000028F9D01048C068C6B221
:100D100000BF0E48806800F002000028F9D0681C6F
:100D2000C5B2B4F88400A842D6DC40F608010648F3
:100D3000FFF7A4FD06480068401C0549086070BD27
:100D4000000000204C02002000080140003001405B
:100D500004000020704700002DE9FF5F0746884629
:100D6000144699460E9D002001F029F80120FE4905
:100D700088724020FD4981F83900602081F83A00EE
:100D800091F8390000F03EFFF94981F83900F74940
:100D900091F83A0000F047FFF54981F83A00F5492B
:100DA0004846FFF7E3F90090FFF755FA0190FFF787
:100DB0004DFA8246F0495046FFF70AFA0190FFF7D4
:100DC0004AFA0646C6F3074BC6F307200390F0B273
:100DD0000290E64880F805B0E449039888710298CB
:100DE000C871FF200872092048723F2088720320D2
:100DF000C872487900F07DFFDD494871DB49887988
:100E000000F066FFDA498871D849C87900F04FFFD1
:100E1000D749C871D549087A00F0F3FFD449087260
:100E2000D249487A00F0FEFFD1494872CF49887A0A
:100E300000F0B4FFCE498872CC49C87A00F07BFF3D
:100E4000CB49C8728020C9490870087800F0B7FF04
:100E5000C7490870C549087800F0B1FFC449087057
:100E600000F052FD8E20C1490873022048730A2009
:100E70008873FF20C873152048740B2088742820BD
:100E8000C8740C2008750220487500208875C87544
:100E9000087648768876AA20C876002008774877B2
:100EA0008877C877062081F82000002081F821008B
:100EB000032081F82200932081F82300552081F837
:100EC000240081F8250081F8260081F8270081F8A8
:100ED000280081F8290081F82A0081F82B001220CF
:100EE00081F82C00402081F82D00084680F82E4023
:100EF00080F82F7080F83080601EC0B240F0800013
:100F000081F83100152081F83200242081F8330067
:100F1000002081F83400F52081F83500202081F888
:100F20003600822081F83700022081F83800087BE3
:100F300001F011F88E4908738C49487B00F0FAFFE4
:100F40008B4948738949887B00F0E3FF884988739F
:100F50008649C87D00F034FE8549C8758349087EFE
:100F600000F01DFE824908768049487E00F07DFE33
:100F70007F4948767D49887E00F066FE7C49887608
:100F80007A49C87E00F092FF7949C8767749087F90
:100F900001F003F8764908777449487F01F00EF8AC
:100FA000734948777149887F01F019F8704988774B
:100FB0006E49C87F00F0E0FF6D49C8776B4991F832
:100FC000200000F00DFF6A4981F82000674991F880
:100FD000210000F08DFF664981F82100634991F8F6
:100FE000220000F074FF624981F822005F4991F805
:100FF000230001F027F85E4981F823005B4991F84E
:10100000240001F030F85A4981F82400574991F83A
:10101000250001F039F8564981F82500534991F827
:10102000260001F042F8524981F826004F4991F814
:10103000270001F04BF84E4981F827004B4991F801
:10104000280001F054F84A4981F82800474991F8EE
:10105000290001F05DF8464981F82900434991F8DB
:101060002A0001F066F8424981F82A003F4991F8C8
:101070002B0001F06FF83E4981F82B003B4991F8B5
:101080002C0000F0E0FE3A4981F82C00374991F835
:101090002D0000F0E9FE364981F82D00334991F822
:1010A0002E0000F0F2FE324981F82E002F4991F80F
:1010B0002F0000F062FE2E4981F82F002B4991F895
:1010C000300000F08EFD2A4981F83000274991F860
:1010D000310000F0DBFD264981F83100234991F809
:1010E000320000F08DFF224981F832001F4991F84B
:1010F000330000F096FF1E4981F833001B4991F838
:10110000340001F05AF81A4981F83400174991F86F
:10111000350001F030F8164981F83500134991F88F
:10112000360001F039F8124981F836000F4991F87C
:10113000370000F0EFFD0E4981F837000B4991F8B8
:10114000380000F009FE0A4981F83800074890F895
:101150002F0005498870054890F83000C870034892
:1011600090F82E00087009E02801002050000020AF
:10117000BC00002000007A4400247442802076499C
:101180000870087800F01BFE74490870002072494E
:1011900081F84400802081F84500002081F8460055
:1011A000832081F84800722081F8540045F0040043
:1011B00081F85500642081F85600002081F857001E
:1011C000082081F85800084680F85940FF2081F82F
:1011D0005A00002081F85B00042081F85D0091F83E
:1011E000440000F0BBFB5D4981F844005A4991F886
:1011F000450000F0D5FB594981F84500564991F862
:10120000460000F0BCFB554981F84600524991F870
:10121000480000F0F8FB514981F848004E4991F828
:10122000540000F023FC4D4981F854004A4991F8DC
:10123000550000F02CFC494981F85500464991F8C9
:10124000560000F08AFC454981F85600424991F861
:10125000570000F071FC414981F857003E4991F870
:10126000580000F058FC3D4981F858003A4991F87F
:10127000590000F02EFC394981F85900364991F89F
:101280005A0000F037FC354981F85A00324991F88C
:101290005B0000F096FB314981F85B002E4991F824
:1012A0005D0000F005FC2D4981F85D0003202A490E
:1012B00081F86500402081F86300002081F8640017
:1012C00091F8650000F028FB244981F86500224967
:1012D00091F8630000F0B9FB204981F863001E49D2
:1012E00091F8640000F0A0FB1C4981F864002620FE
:1012F000194981F86600032081F867000A2081F807
:101300006800122081F869001D2081F86B0091F8B7
:10131000670000F067FB114981F867000E4991F8FA
:10132000680000F00AFB0D4981F868000A4991F84D
:10133000690000F023FC094981F869007020084920
:101340004875084605750120887500F0F3F90449D1
:101350008861BDE8FF9F000050000020BC00002015
:101360002801002010B541F210010748FFF77EFA6E
:101370000A20FFF7E7FA41F210010348FFF77EFA6F
:101380000A20FFF7DFFA10BD0008014070B50446DF
:101390000D461748807A68B9012000F02DF82946DB
:1013A000204600F051F8032000F026F801201049F3
:1013B00048701CE00E48807A012818D1002000F007
:1013C0001BF86021402000F025F80A4991F84500FB
:1013D00000F058F8012000F00FF82946204600F0F0
:1013E00033F8032000F008F801200149487070BD6F
:1013F000280100205000002070B504460448007801
:1014000000F0F80040EA0405284600F053F870BDEB
:101410005000002070B504460D4680264020094942
:101420000870012081F886000320A1F88400084696
:1014300000783043487008468470C570FFF72EFC72
:1014400070BD0000840E002070B505460C46802655
:1014500000200B490870012081F8860008460078BA
:1014600030434870224629460548801CFEF75AFE44
:10147000601C0349A1F884000846FFF70FFC70BD0B
:101480004C02002070B5044680250D2008490870E4
:10149000012081F886000220A1F884000846007827
:1014A0002843487008468470FFF7F8FB70BD0000C1
:1014B0000C0F002070B50446802501201F490978D3
:1014C00001EB01111E4A02F831001C49097801EBB9
:1014D000011102EBC10181F8860002201749097849
:1014E00001EB011102EBC101A1F88400134800785F
:1014F00000EB0010114611F8300028430F4909781D
:1015000001EB011102EBC10148700C48007800EBBF
:101510000010114601EBC00084700849097801EB06
:10152000011102EBC100FFF7B9FB0448007809285C
:1015300002DD00200149087070BD00000C00002091
:101540005C0300207047000010B50220374909688D
:1015500021F007010143354A116000BF00BF10466A
:10156000006800F00700022801D0FEF78AFF00BFE4
:101570002F48006840F480302D49086000BF00BF4C
:1015800000BF2B480068C0F340400028F8D04FF45B
:1015900080304FF4E011264A526822F47C1200F4A5
:1015A00040330B431A43224B5A6000BF00BF18461A
:1015B000006840F080701946086000BF00BF00BF9F
:1015C0001B480068C0F340600028F8D0002018498C
:1015D000496821F0F0010143154A516000BF101520
:1015E0001146496821F4E0610143516000BF0020C9
:1015F0001146496821F460510143516000BF022047
:101600001146496821F003010143516000BF00BF4A
:1016100000BF0748406800F00C000828F8D10548D2
:10162000FFF74AF90348FFF787F910BD0020024091
:101630000010024000A24A04704700BFFEE700000D
:10164000014A024900F065B83D170008100000206B
:10165000002809DB00F01F0201219140420992009D
:1016600002F1E022C2F800117047002809DB00F007
:101670001F02012191404209920002F1E022C2F8CA
:101680000011704702480068C0F302207047000054
:101690000CED00E002480068C0F302207047000033
:1016A0000CED00E010B5002804DB0A07130E054A14
:1016B000135406E00A07140E034A00F00F031B1F21
:1016C000D45410BD00E400E018ED00E010B500288F
:1016D00004DB0A07130E054A135406E00A07140E2A
:1016E000034A00F00F031B1FD45410BD00E400E0B8
:1016F00018ED00E002E008C8121F08C1002AFAD164
:1017000070477047002001E001C1121F002AFBD181
:1017100070472DE9F04116460F460446002503E0C8
:101720003946B047641C6D1C20780028F8D1284643
:10173000BDE8F0814FF42F7070470000074A12682F
:1017400002F0807242B100BF4FF060421268002A7E
:10175000FAD04FF06043187070470000FCED00E0D5
:1017600008B50120334989690143324A9161114624
:1017700089690140009100BF00BF00071146C96997
:101780000143D1611146C9690140009100BF00BF0A
:1017900003200246284B19684FF6FF031940274BD8
:1017A0000B4343EA0221244B196000BF00BF2448C9
:1017B000406820F0E060224948600846406840F0F8
:1017C0000070486000BFFFF7BFFE01201D49887010
:1017D0000020C87009200870FFF7F6F8FFF7C6F878
:1017E000FFF780F9FEF7BEFDFFF74CFAFFF7BAFDF1
:1017F0000620144B00901A78D9789878124BFFF78E
:10180000ABFA16E000F080F809211048FFF7BEFDA2
:101810000A20FFF797F86420FFF794F80CA0FFF771
:101820000FFF0A4880780949887008468078401C74
:101830008870E7E7001002400CED00E00000FA05B8
:1018400000000140C412002000005944360000206E
:1018500068656C6C6F0A00007CB50446002001903E
:1018600000908DF804408DF8050040F608012448EA
:10187000FEF7FCFF00BF2348806800F0020000284C
:10188000F9D09DF804001F49C86000BF1D4880685A
:1018900000F080000028F9D100BF1A48806800F0ED
:1018A00001000028F9D01748C068C5B200BF15482C
:1018B000806800F002000028F9D09DF80500114969
:1018C000C86000BF0F48806800F080000028F9D190
:1018D00000BF0C48806800F001000028F9D00948DA
:1018E000C068C0B28DF8000040F608010448FEF759
:1018F000C5FF0120FFF726F89DF800007CBD000021
:10190000000801400030014010B500241820FFF706
:10191000A3FF0446204610BD70B5044600252146AD
:10192000312000F05BFC3120FFF796FF0546A54211
:1019300001D1002070BD0120FCE770B504460025F0
:101940002146372000F04AFC3720FFF785FF054687
:10195000A54201D1002070BD0120FCE770B504460E
:10196000002521460D2000F039FC0D20FFF774FF03
:101970000546A54201D1002070BD0120FCE770B5ED
:101980000446002521460F2000F028FC0F20FFF719
:1019900063FF0546A54201D1002070BD0120FCE790
:1019A00070B50446002521460E2000F017FC0E20DD
:1019B000FFF752FF0546A54201D1002070BD01206E
:1019C000FCE770B5044600252146242000F006FC03
:1019D0002420FFF741FF0546A54201D1002070BD3C
:1019E0000120FCE770B5044600252146362000F0B2
:1019F000F5FB3620FFF730FF0546A54201D1002058
:101A000070BD0120FCE770B5044600252146112079
:101A100000F0E4FB1120FFF71FFF0546A54201D1AE
:101A2000002070BD0120FCE770B50446002521466A
:101A3000302000F0D3FB3020FFF70EFF0546A54213
:101A400001D1002070BD0120FCE770B504460025DF
:101A500021462F2000F0C2FB2F20FFF7FDFE054698
:101A6000A54201D1002070BD0120FCE770B50446FD
:101A7000002521461D2000F0B1FB1D20FFF7ECFEE4
:101A80000546A54201D1002070BD0120FCE770B5DC
:101A90000446002521461E2000F0A0FB1E20FFF773
:101AA000DBFE0546A54201D1002070BD0120FCE708
:101AB00070B5044600252146262000F08FFB262025
:101AC000FFF7CAFE0546A54201D1002070BD0120E6
:101AD000FCE770B5044600252146222000F07EFB7D
:101AE0002220FFF7B9FE0546A54201D1002070BDB6
:101AF0000120FCE770B5044600252146232000F0B4
:101B00006DFB2320FFF7A8FE0546A54201D100206A
:101B100070BD0120FCE770B5044600252146212058
:101B200000F05CFB2120FFF797FE0546A54201D19E
:101B3000002070BD0120FCE770B504460025214659
:101B4000202000F04BFB2020FFF786FE0546A54233
:101B500001D1002070BD0120FCE770B504460025CE
:101B600021461F2000F03AFB1F20FFF775FE0546B7
:101B7000A54201D1002070BD0120FCE770B50446EC
:101B800000252146392000F029FB3920FFF764FEAB
:101B90000546A54201D1002070BD0120FCE770B5CB
:101BA0000446002521461C2000F018FB1C20FFF7EE
:101BB00053FE0546A54201D1002070BD0120FCE77F
:101BC00070B50446002521461B2000F007FB1B20B2
:101BD000FFF742FE0546A54201D1002070BD01205D
:101BE000FCE770B5044600252146342000F0F6FAE3
:101BF0003420FFF731FE0546A54201D1002070BD1B
:101C00000120FCE770B5044600252146402000F085
:101C1000E5FA4020FFF720FE0546A54201D100204D
:101C200070BD0120FCE770B5044600252146412027
:101C300000F0D4FA4120FFF70FFE0546A54201D17E
:101C4000002070BD0120FCE770B504460025214648
:101C50001E2000F0C3FA1E20FFF7FEFD0546A54238
:101C600001D1002070BD0120FCE770B504460025BD
:101C700021461D2000F0B2FA1D20FFF7EDFD0546BC
:101C8000A54201D1002070BD0120FCE770B50446DB
:101C900000252146352000F0A1FA3520FFF7DCFDB4
:101CA0000546A54201D1002070BD0120FCE770B5BA
:101CB000044600252146082000F090FA0820FFF78E
:101CC000CBFD0546A54201D1002070BD0120FCE7F7
:101CD00070B5044600252146072000F07FFA072052
:101CE000FFF7BAFD0546A54201D1002070BD0120D5
:101CF000FCE770B5044600252146062000F06EFA88
:101D00000620FFF7A9FD0546A54201D1002070BDC0
:101D10000120FCE770B50446002521463B2000F079
:101D20005DFA3B20FFF798FD0546A54201D1002052
:101D300070BD0120FCE770B50446002521460C204B
:101D400000F04CFA0C20FFF787FD0546A54201D1B3
:101D5000002070BD0120FCE770B504460025214637
:101D60003D2000F03BFA3D20FFF776FD0546A542F9
:101D700001D1002070BD0120FCE770B504460025AC
:101D80002146332000F02AFA3320FFF765FD05468F
:101D9000A54201D1002070BD0120FCE770B50446CA
:101DA000002521460B2000F019FA0B20FFF754FD07
:101DB0000546A54201D1002070BD0120FCE770B5A9
:101DC000044600252146012000F008FA0120FFF713
:101DD00043FD0546A54201D1002070BD0120FCE76E
:101DE00070B5044600252146242000F0F7F9242090
:101DF000FFF732FD0546A54201D1002070BD01204C
:101E0000FCE770B5044600252146092000F0E6F9FC
:101E10000920FFF721FD0546A54201D1002070BD34
:101E20000120FCE770B50446002521460A2000F099
:101E3000D5F90A20FFF710FD0546A54201D1002083
:101E400070BD0120FCE770B5044600252146302016
:101E500000F0C4F93020FFF7FFFC0546A54201D190
:101E6000002070BD0120FCE770B504460025214626
:101E7000312000F0B3F93120FFF7EEFC0546A54212
:101E800001D1002070BD0120FCE770B5044600259B
:101E90002146322000F0A2F93220FFF7DDFC054692
:101EA000A54201D1002070BD0120FCE770B50446B9
:101EB000002521461F2000F091F91F20FFF7CCFCE0
:101EC0000546A54201D1002070BD0120FCE770B598
:101ED000044600252146262000F080F92620FFF741
:101EE000BBFC0546A54201D1002070BD0120FCE7E6
:101EF00070B5044600252146252000F06FF9252005
:101F0000FFF7AAFC0546A54201D1002070BD0120C3
:101F1000FCE770B50446002521460F2000F05EF96D
:101F20000F20FFF799FC0546A54201D1002070BDA6
:101F30000120FCE770B50446002521460E2000F084
:101F40004DF90E20FFF788FC0546A54201D100207F
:101F500070BD0120FCE770B50446002521460D2028
:101F600000F03CF90D20FFF777FC0546A54201D1B2
:101F7000002070BD0120FCE770B504460025214615
:101F8000232000F02BF92320FFF766FC0546A5422D
:101F900001D1002070BD0120FCE770B5044600258A
:101FA0002146202000F01AF92020FFF755FC0546B5
:101FB000A54201D1002070BD0120FCE770B50446A8
:101FC00000252146212000F009F92120FFF744FCDB
:101FD0000546A54201D1002070BD0120FCE770B587
:101FE000044600252146222000F0F8F82220FFF7C1
:101FF00033FC0546A54201D1002070BD0120FCE75D
:1020000070B5044600252146362000F0E7F836205A
:10201000FFF722FC0546A54201D1002070BD01203A
:10202000FCE770B5044600252146372000F0D6F8BD
:102030003720FFF711FC0546A54201D1002070BDF5
:102040000120FCE770B5044600252146272000F05A
:10205000C5F82720FFF700FC0546A54201D1002066
:1020600070BD0120FCE770B50446002521462820FC
:1020700000F0B4F82820FFF7EFFB0546A54201D198
:10208000002070BD0120FCE770B504460025214604
:10209000292000F0A3F82920FFF7DEFB0546A54222
:1020A00001D1002070BD0120FCE770B50446002579
:1020B00021462A2000F092F82A20FFF7CDFB0546A2
:1020C000A54201D1002070BD0120FCE770B5044697
:1020D000002521462B2000F081F82B20FFF7BCFBC8
:1020E0000546A54201D1002070BD0120FCE770B576
:1020F0000446002521462C2000F070F82C20FFF724
:10210000ABFB0546A54201D1002070BD0120FCE7D4
:1021100070B50446002521462D2000F05FF82D20E3
:10212000FFF79AFB0546A54201D1002070BD0120B2
:10213000FCE770B50446002521462E2000F04EF83D
:102140002E20FFF789FB0546A54201D1002070BD76
:102150000120FCE770B50446002521462F2000F041
:102160003DF82F20FFF778FB0546A54201D100205E
:1021700070BD0120FCE770B50446002521463920DA
:1021800000F02CF83920FFF767FB0546A54201D186
:10219000002070BD0120FCE770B5044600252146F3
:1021A0003A2000F01BF83A20FFF756FB0546A542FF
:1021B00001D1002070BD0120FCE770B50446002568
:1021C0002146382000F00AF83820FFF745FB054685
:1021D000A54201D1002070BD0120FCE72DE9F843A4
:1021E00004460D4600264FF080080020009048EA83
:1021F00004008DF800008DF8015040F608012348D6
:10220000FEF734FB00BF2248806800F0020000287F
:10221000F9D09DF800001E49C86000BF1C488068C6
:1022200000F080000028F9D100BF1948806800F054
:1022300001000028F9D01648C068C7B200BF144892
:10224000806800F002000028F9D09DF801001049D4
:10225000C86000BF0E48806800F080000028F9D1F7
:1022600000BF0B48806800F001000028F9D0084842
:10227000C068C7B240F608010448FEF7FFFA012023
:10228000FEF760FB3046BDE8F8830000000801401F
:1022900000300140081C3044586C80081C30445801
:1022A0006C80081C3044586C80000000CC22000870
:1022B0000000002050000000F41600081C23000855
:1022C0005000002098160000041700084C01002060
:1022D00000000000000000000000000000000000FE
:1022E00000000000000101010000000000000000EB
:1022F00000000000000000000000000000000000DE
:1023000000000001020300000000000000000000C7
:0C23100000000000000000000024F400A9
:04000005080000ED02
:00000001FF
