:020000040800F2
:10000000F016002001010008010C0008850400081A
:10001000FD0B0008110300088F1600080000000007
:10002000000000000000000000000000550D000866
:100030003504000800000000830C00089915000832
:100040001B0100081B0100081B0100081B01000820
:100050001B0100081B010008390400087104000896
:100060001B0100081B0100081B0100081B01000800
:1000700015030008190300081B0100081B010008F4
:100080001B0100081B0100081B0100081B010008E0
:100090001B0100081B0100081B0100081B010008D0
:1000A0001B0100081B0100081B0100081B010008C0
:1000B0001B0100081B010008000000001B010008D4
:1000C0001B01000800000000000000001B010008E8
:1000D000000000001B0100081B01000800000000D8
:1000E0001B0100081B0100081B010008DFF80CD0F1
:1000F00000F0FCF800480047B5170008F016002093
:100100000648804706480047FEE7FEE7FEE7FEE7B1
:10011000FEE7FEE7FEE7FEE7FEE7FEE78D160008D6
:10012000ED00000840EA01039B0703D009E008C97D
:10013000121F08C0042AFAD203E011F8013B00F8AC
:10014000013B521EF9D27047D2B201E000F8012BF8
:10015000491EFBD270470022F6E710B513460A4647
:1001600004461946FFF7F0FF204610BD80EA010261
:1001700010B502F00043400022D04A001FD0010E0B
:1001800001EB1261C0F35600C2F3560240F40000C6
:1001900042F40002A0FB022000047F39140400D0C6
:1001A000401C50EA124001D44000491EC2B20C0665
:1001B00004EBD010401C4008802A02D003E000204D
:1001C00010BD20F00100002900DA0020184310BD06
:1001D00030B480EA010202F0004530F0004221F024
:1001E000004013D090B1C30DD40DC2F31601C0F37B
:1001F0001600E41A41F4000140F400027D349142FB
:1002000001D3641C00E04900002C02DA30BC00205D
:1002100070474FF400000023914201D3891A034331
:1002200040084FEA4101F7D151B1914202D14FF05C
:10023000004105E002D24FF0010101E06FF0010141
:1002400003EBC450284430BC00F019B896230022B8
:10025000114600F01DB820F00040C10DC0F316009B
:1002600040F400007F2901DA00207047962903DC62
:10027000C1F19601C84070479639884070470029FF
:10028000A8BF7047401C490008BF20F0010070471C
:1002900010B4B0FA80FC00FA0CF050EA010404BF7C
:1002A00010BC704749B1CCF1200421FA04F411FAD2
:1002B0000CF118BF012121430843A3EB0C01CB1D16
:1002C0004FEA00614FEA102042BF002010BC704787
:1002D00000EBC35010440029A4BF10BC7047401C61
:1002E000490008BF20F0010010BC7047064C074DC4
:1002F00006E0E06840F0010394E8070098471034F6
:10030000AC42F6D3FFF7F6FEE02300080024000815
:1003100000BFFEE77047000010B500BF10200E4977
:10032000486000BF40F608010C4800F0ABFA00BF7F
:100330004FF480700849486000BF084603214A1EF8
:10034000074B9A5C825822F001034A1E044CA25CBF
:10035000835000BF10BD00000000024000080140B3
:10036000D62300082DE9F04102212E4800F0A8F81C
:1003700000BF20202B49486000BF00BF802048609C
:1003800000BF00BF2848406840F00100264948608F
:1003900000BF0221234800F0A1F822480221224D8B
:1003A00005F10C02214B05460226771EDFF880C0BE
:1003B0001CF80770EF5944F2100C07EA0C0400BF58
:1003C000102C09D14D1E1A4E755D0544EA604D1E74
:1003D000755D0544AB6008E04D1E154E755D054426
:1003E000AA604D1E755D0544EB6000BF03210D48FA
:1003F00000F066F800BF4FF400700A49486000BF83
:1004000000BF8000486000BF00BF0748406840F060
:1004100002000549486000BF0321024800F05EF871
:10042000BDE8F0810000024000300140AC12002025
:10043000C82300087047000010B5012000F060F9E3
:1004400080B1012000F0C8F80749084800F01AFA06
:10045000642000F077FA0448C0F30F21034A516189
:1004600000BF00BF10BD00002000200400100140AC
:1004700010B5022000F044F910B1022000F0ACF8F1
:1004800010BD704700BFFEE708B505498969014303
:10049000034A9161114689690140009100BF08BD7E
:1004A0000010024008B5054989690143034A91617A
:1004B000114689690140009100BF08BD001002404B
:1004C00010B54A1E044B9A5C825822F001034A1E62
:1004D000014CA25C835010BDC823000810B54A1E11
:1004E000044B9A5C825842F002034A1E014CA25C03
:1004F000835010BDC823000830B54B1E054CE35C8B
:10050000C35823F4405313434C1E024D2C5D03513A
:1005100030BD0000CF23000830B54B1E054CE35C16
:10052000C35844F21004A34313434C1E014D2C5DE9
:10053000035130BDCF23000830B54B1E054CE35CA2
:10054000C35823F0800313434C1E024D2C5D03510E
:1005500030BD0000CF23000830B54B1E054CE35CD6
:10056000C35823F4406313434C1E024D2C5D0351CA
:1005700030BD0000CF23000830B54B1E054CE35CB6
:10058000C35823F0200313434C1E024D2C5D03512E
:1005900030BD0000CF23000830B54B1E054CE35C96
:1005A000C35823F0400313434C1E024D2C5D0351EE
:1005B00030BD0000CF23000830B54B1E054CE35C76
:1005C000C35823F4407313434C1E024D2C5D03515A
:1005D00030BD0000CF2300080149086070470000CB
:1005E00014040140024909688143014A11607047BF
:1005F00004040140024909688143014A11607047BF
:1006000000040140024909680143014A1160704732
:1006100004040140024909680143014A116070471E
:100620000C040140024909680143014A1160704706
:1006300000040140024909680143014A1160704702
:100640000804014070B504460025207900284DD0EB
:100650002068002850D0607920B1012809D00228F4
:1006600015D10DE02068FFF7BDFF2068FFF7DAFF26
:100670000FE02068FFF7BEFF2068FFF7C3FF08E028
:100680002068FFF7CFFF2068FFF7BCFF01E00125DE
:1006900000BF00BFA07940B3A079012804D0022890
:1006A0000DD003281FD117E0206814490968814341
:1006B000124A116000BF2068FFF7BCFF15E02068F8
:1006C0000E49091F096881430C4A121F116000BFBF
:1006D0002068FFF79FFF08E02068FFF7ABFF206866
:1006E000FFF798FF01E0012500BF05E02068FFF754
:1006F00081FF2068FFF776FF284670BD0C0401409B
:100700000146044800680840884201D10120704732
:100710000020FCE71404014010B5094ACBB252F89E
:10072000232022EA11420B0C93FAA3F3B3FA83F3CA
:1007300000FA03F31A43024BCCB243F8242010BD55
:10074000080001402DE9F04102460B461868C0F34D
:100750000F2595FAA5F0B0FA80F480E00120A040C2
:10076000284000287AD0082C04D240F2011000FA68
:1007700004F106E0A4F108004FF00116864046F0AF
:100780008061586808280ED11869D66826EA1126B3
:100790000F0A97FAA7F7B7FA87F700FA07F73E4369
:1007A000D66000BF00BF586802EB116691FAA1FC49
:1007B000BCFA8CFC4FEA8C084FF00F0C0CFA08FCCA
:1007C000376827EA0C0791FAA1FCBCFA8CFC4FEAC7
:1007D0008C0C00FA0CFC47EA0C07376000BF586825
:1007E000012802D05868092838D1986802EB1166B0
:1007F00091FAA1FCBCFA8CFC4FEA8C084FF0030C78
:100800000CFA08FC376827EA0C0791FAA1FCBCFA3D
:100810008CFC4FEA8C0C00FA0CFC47EA0C073760A2
:1008200000BFD86802EB116691FAA1FCBCFA8CFCFF
:100830004FEA8C084FF0040C0CFA08FC376827EAE2
:100840000C0791FAA1FCBCFA8CFC4FEA8C0C00FA64
:100850000CFC47EA0C07376000BF00BF641C25FA98
:1008600004F000287FF47AAFBDE8F081C1F30F22D5
:1008700042617047C1F30F2242617047C1F30F22FA
:1008800002617047C1F30F220261704770B500EB3F
:10089000116391FAA1F5B5FA85F5AE000F25B540C3
:1008A0001C68AC4391FAA1F5B5FA85F5AD0002FAE2
:1008B00005F52C431C6070BD4FF47A71B0FBF1F26A
:1008C000521E4FF0E0235A6100229A6105221A61FC
:1008D00000BF704730B50246012300BF1068C0F367
:1008E000801038BBD1E9000420438C682043CC68D9
:1008F00020430C6920434C6920438C692043CC6918
:1009000020430C6A204314684FF6BF75AC43204364
:100910001060506820F004004C6940EA14405060B8
:10092000086AB0F5005F04D1486A84B2146100BF60
:1009300000BF0023184630BD014908607047000021
:100940003400002008B54FF0E0210969009100BF94
:10095000411C01B1401C06E04FF0E021096901F49F
:10096000803101B1401E0028F6D108BD38B5012004
:10097000144949690143134A5161114649690140CB
:10098000009100BF00BF00F0AFFE054600221146F7
:1009900000F057F9044621460C2000F0C1FE0C205F
:1009A00000F08DFE00F0A0FE05460022114600F08A
:1009B00048F9044621460D2000F0B2FE0D2000F05B
:1009C0007EFE38BD0010024030B587B00020059093
:1009D000069014216846FFF7BEFB1020FFF754FD78
:1009E0002020FFF751FD0420FFF74EFD0820FFF700
:1009F0004BFD39493948FFF73DFF41F61C41384866
:100A0000FFF738FF34480090012001900220029047
:100A10000020039069463148FFF794FE41F61C40E0
:100A2000009001200190022002900020039069466E
:100A30002B48FFF787FE4FF470210020FFF76CFE74
:100A40004FF470010020FFF767FE012005908DF83C
:100A5000180000208DF8190002208DF81A0005A852
:100A6000FFF7F0FD0220059001208DF8180000200E
:100A70008DF8190001208DF81A0005A8FFF7E2FD96
:100A8000042240F201111648FFF700FF042240F251
:100A900002211348FFF7FAFE00F01EFE0546002271
:100AA000114600F0AEF804462146062000F024FE70
:100AB000062000F0F7FD00F00FFE0546002211466B
:100AC00000F09FF804462146072000F015FE07209D
:100AD00000F0E8FD07B030BD200020040010014008
:100AE0000008014000B58FB0282105A8FFF733FBAF
:100AF00014216846FFF72FFB4FF48050FFF7D2FC1C
:100B00000420FFF7CFFC4AF2A000009009200190DA
:100B1000032002900020039069463548FFF712FE3B
:100B200044F2400000900420019069463048FFF7ED
:100B300009FE002202212F48FFF7EEFC00220221CD
:100B40002C48FFF7D9FC002202212A48FFF714FDA8
:100B5000002202212748FFF71FFD8022022125489D
:100B6000FFF7EAFC002202212248FFF725FD0022C0
:100B700002212048FFF7F0FC102203211D48FFF757
:100B8000CBFC002203211B48FFF7B6FC0022032107
:100B90001848FFF7F1FC002203211648FFF7FCFC80
:100BA000802203211348FFF7C7FC002203211148CC
:100BB000FFF702FD002203210E48FFF7CDFC0020C5
:100BC00005904FF4827006900020079008900990DD
:100BD0004FF400700A9018200B9000200C900D909C
:100BE0000A200E9005A90448FFF774FE0FB000BD5F
:100BF00000080140000002400030014000BFFEE755
:100C00007047F0B503460C4603F00701C1F1070039
:100C1000042801D9042001E0C1F107000646081D9F
:100C2000072801D2002000E0C81E05460120B04080
:100C3000401E2040A8400127AF407F1E1740384388
:100C4000F0BDF0B503460C4603F00701C1F1070003
:100C5000042801D9042001E0C1F107000646081D5F
:100C6000072801D2002000E0C81E05460120B04040
:100C7000401E2040A8400127AF407F1E1740384348
:100C8000F0BD704700BF0448006840F040000249D2
:100C9000086000BF704700000030014070B5044696
:100CA0000025002084F88700254800680460244857
:100CB0000068001D224908600846016821488142F9
:100CC00003D1A0F580701E49086040F608011E4857
:100CD000FFF7CCFD002524E000BF1C48806800F031
:100CE00002000028F9D0601C405D1849C86000BFB0
:100CF0001648806800F080000028F9D100BF134832
:100D0000806800F001000028F9D01048C068C6B221
:100D100000BF0E48806800F002000028F9D0681C6F
:100D2000C5B2B4F88400A842D6DC40F608010648F3
:100D3000FFF7A4FD06480068401C0549086070BD27
:100D40000000002034020020000801400030014073
:100D500008000020704700002DE9FF5F0746884625
:100D6000144699460E9D002001F0A0F80120FE498E
:100D700088720020FD4981F83900602081F83A002E
:100D800091F8390000F082FFF94981F83900F749FC
:100D900091F83A0000F08BFFF54981F83A00F549E7
:100DA0004846FFF7E3F90090FFF755FA0190FFF787
:100DB0004DFA8246F0495046FFF70AFA0190FFF7D4
:100DC0004AFA0646C6F3074BC6F307200390F0B273
:100DD0000290E64880F805B0E449039888710298CB
:100DE000C871FF200872092048723F2088720320D2
:100DF000C872487900F0C1FFDD494871DB49887944
:100E000000F0AAFFDA498871D849C87900F093FF49
:100E1000D749C871D549087A01F06AF8D4490872EF
:100E2000D249487A01F075F8D1494872CF49887A99
:100E300000F0F8FFCE498872CC49C87A00F0BFFFB5
:100E4000CB49C872C020C9490870087801F02EF853
:100E5000C7490870C549087801F028F8C4490870E6
:100E600000F074FD8E20C1490873022048730A20E7
:100E70008873FF20C873152048740B2088742820BD
:100E8000C8740C2008750220487500208875C87544
:100E9000087648768876AA20C876002008774877B2
:100EA0008877C877062081F82000002081F821008B
:100EB000032081F82200932081F82300552081F837
:100EC000240081F8250081F8260081F8270081F8A8
:100ED000280081F8290081F82A0081F82B001220CF
:100EE00081F82C00402081F82D00084680F82E4023
:100EF00080F82F7080F83080601EC0B240F0800013
:100F000081F83100152081F83200242081F8330067
:100F1000002081F83400F52081F83500202081F888
:100F20003600822081F83700022081F83800087BE3
:100F300001F0AAF88E4908738C49487B01F071F8DA
:100F40008B4948738949887B01F05AF8884988732E
:100F50008649C87B01F076F88549C8738349487C87
:100F600001F081F8824948748049887C00F039FE9C
:100F70007F4988747D49C87C00F087FF7C49C8742C
:100F80007A49087D00F070FF794908757749487DF6
:100F900000F059FF764948757449887D00F032FEAB
:100FA000734988757149C87D00F04EFE7049C87557
:100FB0006E49087E00F037FE6D4908766B49487E21
:100FC00000F097FE6A4948766849887E00F080FE06
:100FD000674988766549C87E00F0DFFF6449C876B6
:100FE0006249087F01F072F8614908775F49487FDC
:100FF00001F07DF85E4948775C49887F01F088F808
:101000005B4988775949C87F01F04FF85849C8773C
:10101000564991F8200000F05AFF554981F8200008
:10102000524991F8210000F0DAFF514981F821007E
:101030004E4991F8220000F0C1FF4D4981F822008D
:101040004A4991F8230001F096F8494981F82300B4
:10105000464991F8240001F09FF8454981F82400A1
:10106000424991F8250001F0A8F8414981F825008E
:101070003E4991F8260001F0B1F83D4981F826007B
:101080003A4991F8270001F0BAF8394981F8270068
:10109000364991F8280001F0C3F8354981F8280055
:1010A000324991F8290001F0CCF8314981F8290042
:1010B0002E4991F82A0001F0D5F82D4981F82A002F
:1010C0002A4991F82B0001F0DEF8294981F82B001C
:1010D000264991F82C0000F02DFF254981F82C00BD
:1010E000224991F82D0000F036FF214981F82D00AA
:1010F0001E4991F82E0000F03FFF1D4981F82E0097
:101100001A4991F82F0000F07CFE194981F82F0050
:10111000164991F8300000F0A8FD154981F830001B
:10112000124991F8310000F0F5FD114981F83100C4
:101130000E4991F8320000F0FCFF0D4981F83200B1
:101140000A4991F8330001F005F8094981F83300A4
:10115000064991F8340001F0C9F8054981F83400D6
:10116000024991F8350009E0100100203800002004
:10117000A400002000007A440024744201F094F896
:101180008A4981F835008A4991F8360001F09DF8C6
:10119000864981F83600864991F8370000F0FEFD57
:1011A000824981F83700824991F8380000F018FE32
:1011B0007E4981F838007E4890F82F007D4988707C
:1011C0007B4890F83000C870794890F82E0008707D
:1011D000882077490870087800F068FE7349087025
:1011E0000020734981F84400802081F845000020E8
:1011F00081F84600832081F84800722081F854006D
:1012000045F0040081F85500642081F85600002064
:1012100081F85700082081F85800084680F85940A6
:10122000FF2081F85A00002081F85B00042081F83B
:101230005D0091F8440000F0B3FB5C4981F8440084
:101240005B4991F8450000F0CDFB584981F8450015
:10125000574991F8460000F0B4FB544981F8460024
:10126000534991F8480000F0F0FB504981F84800DC
:101270004F4991F8540000F01BFC4C4981F8540090
:101280004B4991F8550000F024FC484981F855007D
:10129000474991F8560000F082FC444981F8560015
:1012A000434991F8570000F069FC404981F8570024
:1012B0003F4991F8580000F050FC3C4981F8580033
:1012C0003B4991F8590000F026FC384981F8590053
:1012D000374991F85A0000F02FFC344981F85A0040
:1012E000334991F85B0000F08EFB304981F85B00D8
:1012F0002F4991F85D0000F0FDFB2C4981F85D005D
:1013000003202B4981F86500402081F8630000200C
:1013100081F8640091F8650000F020FB234981F812
:101320006500234991F8630000F0B1FB1F4981F883
:1013300063001F4991F8640000F098FB1B4981F895
:10134000640026201A4981F86600032081F86700AE
:101350000A2081F86800122081F869001D2081F8B8
:101360006B0091F8670000F05FFB104981F867009F
:101370000F4991F8680000F002FB0C4981F8680001
:101380000B4991F8690000F01BFC084981F86900DD
:10139000702008494875084605750120887500F0D9
:1013A000F3F904498861BDE8FF9F0000A400002014
:1013B000380000201001002010B541F2100107484C
:1013C000FFF754FA0A20FFF7BDFA41F21001034873
:1013D000FFF754FA0A20FFF7B5FA10BD00080140E4
:1013E00070B504460D461748807A68B9012000F0B0
:1013F0002DF82946204600F051F8032000F026F889
:101400000120104948701CE00E48807A012818D14C
:10141000002000F01BF86021402000F025F80A4968
:1014200091F8450000F058F8012000F00FF8294627
:10143000204600F033F8032000F008F801200149AD
:10144000487070BD100100203800002070B50446BF
:101450000448007800F0F80040EA0405284600F04F
:1014600053F870BD3800002070B504460D46802644
:10147000402009490870012081F886000320A1F866
:101480008400084600783043487008468470C57070
:10149000FFF704FC70BD00006C0E002070B505461F
:1014A0000C46802600200B490870012081F8860038
:1014B0000846007830434870224629460548801C7B
:1014C000FEF730FE601C0349A1F884000846FFF7D0
:1014D000E5FB70BD3402002070B5044680250D2068
:1014E00008490870012081F886000220A1F88400D4
:1014F000084600782843487008468470FFF7CEFB02
:1015000070BD0000F40E002070B504468025012057
:101510001F49097801EB01111E4A02F831001C49EC
:10152000097801EB011102EBC10181F8860002206C
:101530001749097801EB011102EBC101A1F8840000
:101540001348007800EB0010114611F830002843D2
:101550000F49097801EB011102EBC10148700C48F9
:10156000007800EB0010114601EBC00084700849C0
:10157000097801EB011102EBC100FFF78FFB044872
:101580000078092802DD00200149087070BD0000C4
:1015900010000020440300207047000010B5022016
:1015A0003749096821F007010143354A116000BF3E
:1015B00000BF1046006800F00700022801D0FEF7C7
:1015C00060FF00BF2F48006840F480302D4908605C
:1015D00000BF00BF00BF2B480068C0F34040002898
:1015E000F8D04FF480304FF4E011264A526822F4CC
:1015F0007C1200F440330B431A43224B5A6000BF65
:1016000000BF1846006840F080701946086000BFAF
:1016100000BF00BF1B480068C0F340600028F8D03E
:1016200000201849496821F0F0010143154A516032
:1016300000BF10151146496821F4E0610143516073
:1016400000BF00201146496821F4605101435160F8
:1016500000BF02201146496821F003010143516097
:1016600000BF00BF00BF0748406800F00C0008281A
:10167000F8D10548FFF720F90348FFF75DF910BDE1
:10168000002002400010024000A24A04704700BF40
:10169000FEE70000014A024900F065B89117000812
:1016A00018000020002809DB00F01F0201219140F2
:1016B0004209920002F1E022C2F8001170470028AE
:1016C00009DB00F01F02012191404209920002F162
:1016D000E022C2F80011704702480068C0F30220FF
:1016E000704700000CED00E002480068C0F30220E3
:1016F000704700000CED00E010B5002804DB0A077D
:10170000130E054A135406E00A07140E034A00F0AC
:101710000F031B1FD45410BD00E400E018ED00E0DF
:1017200010B5002804DB0A07130E054A135406E01F
:101730000A07140E034A00F00F031B1FD45410BDF8
:1017400000E400E018ED00E002E008C8121F08C144
:10175000002AFAD170477047002001E001C1121F32
:10176000002AFBD170472DE9F04116460F4604468A
:10177000002503E03946B047641C6D1C2078002822
:10178000F8D12846BDE8F0814FF42F707047000073
:10179000074A126802F0807242B100BF4FF0604207
:1017A0001268002AFAD04FF06043187070470000AA
:1017B000FCED00E008B501202F49896901432E4A5C
:1017C0009161114689690140009100BF00BF000787
:1017D0001146C9690143D1611146C96901400091AF
:1017E00000BF00BF03200246244B19684FF6FF03D9
:1017F0001940234B0B4343EA0221204B196000BFE1
:1018000000BF2048406820F0E0601E49486008465C
:10181000406840F00070486000BFFFF7BFFE012045
:10182000194988700020C87009200870FFF7CCF8AB
:10183000FFF79CF8FFF756F9FEF794FDFFF722FA41
:10184000FFF7BAFD0620104B00901A78D9789878E7
:101850000E4BFFF781FA0EE000F078F809210C48F2
:10186000FFF7BEFD0A20FFF76DF86420FFF76AF866
:1018700008A0FFF70FFFEFE7001002400CED00E0BB
:101880000000FA0500000140CC120020000059447D
:101890002000002068656C6C6F0A00007CB504466F
:1018A0000020019000908DF804408DF8050040F66E
:1018B00008012448FEF7DAFF00BF2348806800F0E3
:1018C00002000028F9D09DF804001F49C86000BF3D
:1018D0001D48806800F080000028F9D100BF1A4838
:1018E000806800F001000028F9D01748C068C5B230
:1018F00000BF1548806800F002000028F9D09DF86C
:1019000005001149C86000BF0F48806800F08000E2
:101910000028F9D100BF0C48806800F001000028C1
:10192000F9D00948C068C0B28DF8000040F608013F
:101930000448FEF7A3FF0120FFF704F89DF800001C
:101940007CBD0000000801400030014010B50024BB
:101950001820FFF7A3FF0446204610BD70B50446CB
:1019600000252146312000F0D3FC3120FFF796FFFF
:101970000546A54201D1002070BD0120FCE770B5ED
:10198000044600252146372000F0C2FC3720FFF72F
:1019900085FF0546A54201D1002070BD0120FCE76E
:1019A00070B50446002521460D2000F0B1FC0D2045
:1019B000FFF774FF0546A54201D1002070BD01204C
:1019C000FCE770B50446002521460F2000F0A0FC7E
:1019D0000F20FFF763FF0546A54201D1002070BD2F
:1019E0000120FCE770B50446002521460E2000F0DA
:1019F0008FFC0E20FFF752FF0546A54201D10020C3
:101A000070BD0120FCE770B5044600252146242066
:101A100000F07EFC2420FFF741FF0546A54201D1DE
:101A2000002070BD0120FCE770B50446002521466A
:101A3000362000F06DFC3620FFF730FF0546A5424A
:101A400001D1002070BD0120FCE770B504460025DF
:101A50002146112000F05CFC1120FFF71FFF054616
:101A6000A54201D1002070BD0120FCE770B50446FD
:101A700000252146302000F04BFC3020FFF70EFF00
:101A80000546A54201D1002070BD0120FCE770B5DC
:101A90000446002521462F2000F03AFC2F20FFF7B6
:101AA000FDFE0546A54201D1002070BD0120FCE7E6
:101AB00070B50446002521461D2000F029FC1D209C
:101AC000FFF7ECFE0546A54201D1002070BD0120C4
:101AD000FCE770B50446002521461E2000F018FCE6
:101AE0001E20FFF7DBFE0546A54201D1002070BD98
:101AF0000120FCE770B5044600252146262000F0B1
:101B000007FC2620FFF7CAFE0546A54201D10020AA
:101B100070BD0120FCE770B5044600252146222057
:101B200000F0F6FB2220FFF7B9FE0546A54201D1E1
:101B3000002070BD0120FCE770B504460025214659
:101B4000232000F0E5FB2320FFF7A8FE0546A54271
:101B500001D1002070BD0120FCE770B504460025CE
:101B60002146212000F0D4FB2120FFF797FE0546F7
:101B7000A54201D1002070BD0120FCE770B50446EC
:101B800000252146202000F0C3FB2020FFF786FE21
:101B90000546A54201D1002070BD0120FCE770B5CB
:101BA0000446002521461F2000F0B2FB1F20FFF74E
:101BB00075FE0546A54201D1002070BD0120FCE75D
:101BC00070B5044600252146392000F0A1FB3920DC
:101BD000FFF764FE0546A54201D1002070BD01203B
:101BE000FCE770B5044600252146132000F090FB69
:101BF0001320FFF753FE0546A54201D1002070BD1A
:101C00000120FCE770B50446002521461A2000F0AB
:101C10007FFB1A20FFF742FE0546A54201D10020B6
:101C200070BD0120FCE770B50446002521461C204C
:101C300000F06EFB1C20FFF731FE0546A54201D1E6
:101C4000002070BD0120FCE770B504460025214648
:101C50001B2000F05DFB1B20FFF720FE0546A54280
:101C600001D1002070BD0120FCE770B504460025BD
:101C70002146342000F04CFB3420FFF70FFE0546D0
:101C8000A54201D1002070BD0120FCE770B50446DB
:101C900000252146402000F03BFB4020FFF7FEFDE1
:101CA0000546A54201D1002070BD0120FCE770B5BA
:101CB000044600252146412000F02AFB4120FFF781
:101CC000EDFD0546A54201D1002070BD0120FCE7D5
:101CD00070B50446002521461E2000F019FB1E2089
:101CE000FFF7DCFD0546A54201D1002070BD0120B3
:101CF000FCE770B50446002521461D2000F008FBD6
:101D00001D20FFF7CBFD0546A54201D1002070BD87
:101D10000120FCE770B5044600252146352000F07F
:101D2000F7FA3520FFF7BAFD0546A54201D100209C
:101D300070BD0120FCE770B504460025214608204F
:101D400000F0E6FA0820FFF7A9FD0546A54201D1FB
:101D5000002070BD0120FCE770B504460025214637
:101D6000072000F0D5FA0720FFF798FD0546A542A9
:101D700001D1002070BD0120FCE770B504460025AC
:101D80002146062000F0C4FA0620FFF787FD05462D
:101D9000A54201D1002070BD0120FCE770B50446CA
:101DA000002521463B2000F0B3FA3B20FFF776FDEB
:101DB0000546A54201D1002070BD0120FCE770B5A9
:101DC0000446002521460C2000F0A2FA0C20FFF763
:101DD00065FD0546A54201D1002070BD0120FCE74C
:101DE00070B50446002521463D2000F091FA3D20C3
:101DF000FFF754FD0546A54201D1002070BD01202A
:101E0000FCE770B5044600252146332000F080FA37
:101E10003320FFF743FD0546A54201D1002070BDE8
:101E20000120FCE770B50446002521460B2000F098
:101E30006FFA0B20FFF732FD0546A54201D10020C5
:101E400070BD0120FCE770B5044600252146162030
:101E500000F05EFA1620FFF721FD0546A54201D1EC
:101E6000002070BD0120FCE770B504460025214626
:101E7000152000F04DFA1520FFF710FD0546A5428C
:101E800001D1002070BD0120FCE770B5044600259B
:101E90002146142000F03CFA1420FFF7FFFC054611
:101EA000A54201D1002070BD0120FCE770B50446B9
:101EB00000252146012000F02BFA0120FFF7EEFC5F
:101EC0000546A54201D1002070BD0120FCE770B598
:101ED000044600252146242000F01AFA2420FFF7AA
:101EE000DDFC0546A54201D1002070BD0120FCE7C4
:101EF00070B5044600252146092000F009FA0920A2
:101F0000FFF7CCFC0546A54201D1002070BD0120A1
:101F1000FCE770B50446002521460A2000F0F8F9D8
:101F20000A20FFF7BBFC0546A54201D1002070BD89
:101F30000120FCE770B5044600252146302000F062
:101F4000E7F93020FFF7AAFC0546A54201D10020A1
:101F500070BD0120FCE770B5044600252146312004
:101F600000F0D6F93120FFF799FC0546A54201D1D2
:101F7000002070BD0120FCE770B504460025214615
:101F8000322000F0C5F93220FFF788FC0546A54253
:101F900001D1002070BD0120FCE770B5044600258A
:101FA00021461F2000F0B4F91F20FFF777FC0546FB
:101FB000A54201D1002070BD0120FCE770B50446A8
:101FC00000252146262000F0A3F92620FFF766FC15
:101FD0000546A54201D1002070BD0120FCE770B587
:101FE000044600252146252000F092F92520FFF720
:101FF00055FC0546A54201D1002070BD0120FCE73B
:1020000070B50446002521460F2000F081F90F200D
:10201000FFF744FC0546A54201D1002070BD012018
:10202000FCE770B50446002521460E2000F070F94B
:102030000E20FFF733FC0546A54201D1002070BDFC
:102040000120FCE770B5044600252146102000F071
:102050005FF91020FFF722FC0546A54201D10020C0
:1020600070BD0120FCE770B5044600252146122012
:1020700000F04EF91220FFF711FC0546A54201D1F0
:10208000002070BD0120FCE770B504460025214604
:102090000D2000F03DF90D20FFF700FC0546A5429C
:1020A00001D1002070BD0120FCE770B50446002579
:1020B0002146232000F02CF92320FFF7EFFB0546F3
:1020C000A54201D1002070BD0120FCE770B5044697
:1020D00000252146202000F01BF92020FFF7DEFB21
:1020E0000546A54201D1002070BD0120FCE770B576
:1020F000044600252146212000F00AF92120FFF79F
:10210000CDFB0546A54201D1002070BD0120FCE7B2
:1021100070B5044600252146222000F0F9F822205F
:10212000FFF7BCFB0546A54201D1002070BD012090
:10213000FCE770B5044600252146362000F0E8F89B
:102140003620FFF7ABFB0546A54201D1002070BD4C
:102150000120FCE770B5044600252146372000F039
:10216000D7F83720FFF79AFB0546A54201D100209A
:1021700070BD0120FCE770B50446002521462720EC
:1021800000F0C6F82720FFF789FB0546A54201D1DC
:10219000002070BD0120FCE770B5044600252146F3
:1021A000282000F0B5F82820FFF778FB0546A54267
:1021B00001D1002070BD0120FCE770B50446002568
:1021C0002146292000F0A4F82920FFF767FB0546E7
:1021D000A54201D1002070BD0120FCE770B5044686
:1021E000002521462A2000F093F82A20FFF756FB0D
:1021F0000546A54201D1002070BD0120FCE770B565
:102200000446002521462B2000F082F82B20FFF702
:1022100045FB0546A54201D1002070BD0120FCE729
:1022200070B50446002521462C2000F071F82C20C2
:10223000FFF734FB0546A54201D1002070BD012007
:10224000FCE770B50446002521462D2000F060F81B
:102250002D20FFF723FB0546A54201D1002070BDCC
:102260000120FCE770B50446002521462E2000F031
:102270004FF82E20FFF712FB0546A54201D10020A2
:1022800070BD0120FCE770B50446002521462F20D3
:1022900000F03EF82F20FFF701FB0546A54201D1D3
:1022A000002070BD0120FCE770B5044600252146E2
:1022B000392000F02DF83920FFF7F0FA0546A54245
:1022C00001D1002070BD0120FCE770B50446002557
:1022D00021463A2000F01CF83A20FFF7DFFA0546C5
:1022E000A54201D1002070BD0120FCE770B5044675
:1022F00000252146382000F00BF83820FFF7CEFAF1
:102300000546A54201D1002070BD0120FCE7000078
:102310002DE9F84304460D4600264FF080080020C2
:10232000009048EA04008DF800008DF8015040F656
:1023300008012348FEF79AFA00BF2248806800F09F
:1023400002000028F9D09DF800001E49C86000BFB7
:102350001C48806800F080000028F9D100BF1948AF
:10236000806800F001000028F9D01648C068C7B2A4
:1023700000BF1448806800F002000028F9D09DF8E2
:1023800001001049C86000BF0E48806800F080005E
:102390000028F9D100BF0B48806800F00100002838
:1023A000F9D00848C068C7B240F608010448FEF7F3
:1023B00065FA0120FEF7C6FA3046BDE8F883000052
:1023C0000008014000300140081C3044586C80086F
:1023D0001C3044586C80081C3044586C800000004D
:1023E0000024000800000020380000004817000802
:1023F0003824000838000020B816000058170008DC
:102400003401002034010020000000000000000022
:1024100000000000000000000000000000000000BC
:1024200000010203000000000000000000000000A6
:08243000000000000024F4008C
:04000005080000ED02
:00000001FF
